:100000000C942A000C9434000C9434000C943400AA
:100010000C9434000C9434000C9434000C94340090
:100020000C9434000C9434000C9434000C94340080
:100030000C9434000C9434000C9434000C94340070
:100040000C9434000C9434000C9434000C94340060
:100050000C94340011241FBECFE5D8E0DEBFCDBF25
:100060000E9436000C945E000C94000081E087BB77
:100070008FEF8ABB84BB8EEF81BB80E884BF84BFD7
:1000800015BA20E081E091E098BB992311F090E04F
:1000900001C091E08BBB803811F0880F01C081E076
:1000A000809B02C02F5F25BB3FE34DE053E0315002
:1000B00040405040E1F700C00000E6CFF894FFCF89
:00000001FF
