:100000000C942A000C943C000C943C000C943C0092
:100010000C943C000C943C000C943C000C943C0070
:100020000C943C000C943C000C943C000C943C0060
:100030000C943C000C943C000C943C000C943C0050
:100040000C943E000C943C000C943C000C943C003E
:100050000C943C0011241FBECFE5D8E0DEBFCDBF1D
:1000600020E0A0E6B0E001C01D92A136B207E1F7A2
:100070000E944D000C945A000C9400001F920F92A5
:100080000FB60F9211248F9385B1809360008F91EA
:100090000F900FBE0F901F90189580E687B988E8E3
:1000A00086B9789486B1806486B980916000809525
:0800B00088BBF8CFF894FFCFE4
:00000001FF
