:100000000C942A000C9434000C9434000C943400AA
:100010000C9434000C9434000C9434000C94340090
:100020000C9434000C9434000C9434000C94340080
:100030000C9434000C9434000C9434000C94340070
:100040000C9434000C9434000C9434000C94340060
:100050000C94340011241FBECFE5D8E0DEBFCDBF25
:100060000E9456000C945D000C94000080EA87BB4F
:1000700081E58DB9089580E487BB8DB908958FB966
:10008000779BFECF0895779BFECF8FB108951ABA64
:100090000E94360089B30E943F00FCCF8FEF8ABBDD
:1000A0000E943B000E9443008BBBFCCF14BA83B379
:0E00B00081110E9447000E944E00F894FFCF7D
:00000001FF
