:100000000C942A000C943C000C943C000C943C0092
:100010000C943C000C943C000C943E000C943C006E
:100020000C943C000C943C000C943C000C943C0060
:100030000C943C000C943C000C943C000C943C0050
:100040000C943C000C943C000C943C000C943C0040
:100050000C943C0011241FBECFE5D8E0DEBFCDBF1D
:1000600020E0A0E6B0E001C01D92A236B207E1F7A1
:100070000E945E000C9468000C9400001F920F9286
:100080000FB60F9211248F939F9386B597B59093D7
:100090006100809360001DBC1CBC80916000909149
:1000A00061009BBB809160009091610018BA9F91A4
:1000B0008F910F900FBE0F901F9018958FEF87BBF9
:1000C0008ABB1FBC81EC8EBD80E289BF7894FFCFD4
:0400D000F894FFCFD2
:00000001FF
