:100000000C942A000C9434000C9434000C943400AA
:100010000C9434000C9434000C9434000C94340090
:100020000C9434000C9434000C9434000C94340080
:100030000C9434000C9434000C9434000C94340070
:100040000C9434000C9434000C9434000C94340060
:100050000C94340011241FBECFE5D8E0DEBFCDBF25
:100060000E9436000C9450000C9400001ABA8FE0E5
:1000700087BB80EF84BB80E884BF84BF89B3982F9F
:1000800092959F7098BB8295807F85BB2FE38DE012
:1000900093E0215080409040E1F700C00000EECF97
:0400A000F894FFCF02
:00000001FF
