:100000000C942A000C9434000C9434000C943400AA
:100010000C9434000C9434000C9434000C94340090
:100020000C9434000C9434000C9434000C94340080
:100030000C9434000C9434000C9434000C94340070
:100040000C9434000C9434000C9434000C94340060
:100050000C94340011241FBECFE5D8E0DEBFCDBF25
:100060000E9436000C9471000C9400008BEF87BB4B
:1000700081BB8FEF8ABB1BBA16BA10BA1BBA41E01C
:1000800050E021E030E080E0B29905C02130310538
:1000900021F090E003C090E001C091E0992311F0BD
:1000A00081508BBB829905C04130510521F090E011
:1000B00003C090E001C091E0992311F08F5F8BBBEA
:1000C00096B392FB222720F930E090B392FB4427AD
:1000D00040F950E0E7E8F3E13197F1F700C00000A4
:0600E000D3CFF894FFCF1E
:00000001FF
