S0180000496E74657272757074436F756E7465722E737265635F
S11300000C942A000C943E000C943C000C944F0079
S11300100C943C000C943C000C943C000C943C006C
S11300200C943C000C943C000C943C000C943C005C
S11300300C943C000C943C000C943C000C943C004C
S11300400C943C000C943C000C943C000C943C003C
S11300500C943C0011241FBECFE5D8E0DEBFCDBF19
S113006020E0A0E6B0E001C01D92A136B207E1F79E
S11300700E9460000C9477000C9400001F920F9271
S11300800FB60F9211248F93809160008F5F80933D
S113009060008F910F900FBE0F901F9018951F92C4
S11300A00F920FB60F9211248F93809160008150AC
S11300B0809360008F910F900FBE0F901F90189542
S11300C08FEF8ABB1BBA8BB780648BBF8BB7806200
S11300D08BBF85B7816085BF85B7826085BF84B7D4
S11300E0806284BF7894809160008BBBFCCFF894CD
S10500F0FFCF3C
S9030000FC
