S014000052696E6720436F756E7465722E7372656380
S11300000C942A000C9434000C9434000C943400A6
S11300100C9434000C9434000C9434000C9434008C
S11300200C9434000C9434000C9434000C9434007C
S11300300C9434000C9434000C9434000C9434006C
S11300400C9434000C9434000C9434000C9434005C
S11300500C94340011241FBECFE5D8E0DEBFCDBF21
S11300600E9436000C9449000C9400008FEF87BB6B
S113007081E088BB803811F0880F01C081E02FE354
S11300803DE093E0215030409040E1F700C0000093
S1090090F0CFF894FFCF4D
S9030000FC
