S0130000656C6170736554696D65722E7372656396
S11300000C942A000C943C000C943C000C943C008E
S11300100C943C000C943C000C943C000C943C006C
S11300200C943C000C943E000C943C000C943C005A
S11300300C943C000C943C000C943C000C943C004C
S11300400C943C000C943C000C943C000C943C003C
S11300500C943C0011241FBECFE5D8E0DEBFCDBF19
S113006020E0A0E6B0E001C01D92A436B207E1F79B
S11300700E9463000C9493000C9400001F920F9252
S11300800FB60F9211248F939F93AF93BF938091D8
S1130090600090916100A0916200B09163000196AC
S11300A0A11DB11D8093600090936100A093620034
S11300B0B0936300BF91AF919F918F910F900FBE4A
S11300C00F901F9018951FBC81E08EBD84E089BFFE
S11300D0109260001092610010926200109263000E
S11300E081E090E09DBD8CBD789420E030E00AC0B2
S11300F0019602C080E090E0883E43E09407C4F398
S11301002F5F3F4F24363105ACF38091600090910E
S11301106100A0916200B09163008CB59DB5F89424
S10D012080E090E00895F894FFCF0A
S9030000FC
